{"abi":[{"type":"constructor","inputs":[],"stateMutability":"nonpayable"},{"type":"function","name":"agentHashes","inputs":[{"name":"","type":"string","internalType":"string"}],"outputs":[{"name":"","type":"bytes32","internalType":"bytes32"}],"stateMutability":"view"},{"type":"function","name":"agentRecords","inputs":[{"name":"","type":"string","internalType":"string"}],"outputs":[{"name":"agentId","type":"string","internalType":"string"},{"name":"codeHash","type":"bytes32","internalType":"bytes32"},{"name":"registeredBy","type":"address","internalType":"address"},{"name":"registeredAt","type":"uint256","internalType":"uint256"},{"name":"isActive","type":"bool","internalType":"bool"},{"name":"modelName","type":"string","internalType":"string"},{"name":"modelVersion","type":"string","internalType":"string"}],"stateMutability":"view"},{"type":"function","name":"getAgent","inputs":[{"name":"agentId","type":"string","internalType":"string"}],"outputs":[{"name":"","type":"tuple","internalType":"struct AgentIdentityRegistry.AgentRecord","components":[{"name":"agentId","type":"string","internalType":"string"},{"name":"codeHash","type":"bytes32","internalType":"bytes32"},{"name":"registeredBy","type":"address","internalType":"address"},{"name":"registeredAt","type":"uint256","internalType":"uint256"},{"name":"isActive","type":"bool","internalType":"bool"},{"name":"modelName","type":"string","internalType":"string"},{"name":"modelVersion","type":"string","internalType":"string"}]}],"stateMutability":"view"},{"type":"function","name":"getAgentCount","inputs":[],"outputs":[{"name":"","type":"uint256","internalType":"uint256"}],"stateMutability":"view"},{"type":"function","name":"getCodeHash","inputs":[{"name":"agentId","type":"string","internalType":"string"}],"outputs":[{"name":"","type":"bytes32","internalType":"bytes32"}],"stateMutability":"view"},{"type":"function","name":"isRegistered","inputs":[{"name":"","type":"string","internalType":"string"}],"outputs":[{"name":"","type":"bool","internalType":"bool"}],"stateMutability":"view"},{"type":"function","name":"owner","inputs":[],"outputs":[{"name":"","type":"address","internalType":"address"}],"stateMutability":"view"},{"type":"function","name":"registerAgent","inputs":[{"name":"agentId","type":"string","internalType":"string"},{"name":"codeHash","type":"bytes32","internalType":"bytes32"},{"name":"modelName","type":"string","internalType":"string"},{"name":"modelVersion","type":"string","internalType":"string"}],"outputs":[],"stateMutability":"nonpayable"},{"type":"function","name":"registeredAgentIds","inputs":[{"name":"","type":"uint256","internalType":"uint256"}],"outputs":[{"name":"","type":"string","internalType":"string"}],"stateMutability":"view"},{"type":"function","name":"revokeAgent","inputs":[{"name":"agentId","type":"string","internalType":"string"}],"outputs":[],"stateMutability":"nonpayable"},{"type":"function","name":"verifyAgent","inputs":[{"name":"agentId","type":"string","internalType":"string"},{"name":"currentHash","type":"bytes32","internalType":"bytes32"}],"outputs":[{"name":"","type":"bool","internalType":"bool"}],"stateMutability":"view"},{"type":"function","name":"verifyAgentAndLog","inputs":[{"name":"agentId","type":"string","internalType":"string"},{"name":"currentHash","type":"bytes32","internalType":"bytes32"}],"outputs":[{"name":"","type":"bool","internalType":"bool"}],"stateMutability":"nonpayable"},{"type":"function","name":"verifyAgentFull","inputs":[{"name":"agentId","type":"string","internalType":"string"},{"name":"currentHash","type":"bytes32","internalType":"bytes32"}],"outputs":[{"name":"result","type":"tuple","internalType":"struct AgentIdentityRegistry.VerificationResult","components":[{"name":"isValid","type":"bool","internalType":"bool"},{"name":"isActive","type":"bool","internalType":"bool"},{"name":"hashMatches","type":"bool","internalType":"bool"},{"name":"storedHash","type":"bytes32","internalType":"bytes32"},{"name":"providedHash","type":"bytes32","internalType":"bytes32"},{"name":"registeredAt","type":"uint256","internalType":"uint256"},{"name":"agentId","type":"string","internalType":"string"}]}],"stateMutability":"view"},{"type":"event","name":"AgentRegistered","inputs":[{"name":"agentId","type":"string","indexed":true,"internalType":"string"},{"name":"codeHash","type":"bytes32","indexed":false,"internalType":"bytes32"},{"name":"registeredBy","type":"address","indexed":true,"internalType":"address"},{"name":"timestamp","type":"uint256","indexed":false,"internalType":"uint256"}],"anonymous":false},{"type":"event","name":"AgentRevoked","inputs":[{"name":"agentId","type":"string","indexed":true,"internalType":"string"},{"name":"revokedBy","type":"address","indexed":true,"internalType":"address"},{"name":"timestamp","type":"uint256","indexed":false,"internalType":"uint256"}],"anonymous":false},{"type":"event","name":"AgentUpdated","inputs":[{"name":"agentId","type":"string","indexed":true,"internalType":"string"},{"name":"oldCodeHash","type":"bytes32","indexed":false,"internalType":"bytes32"},{"name":"newCodeHash","type":"bytes32","indexed":false,"internalType":"bytes32"},{"name":"timestamp","type":"uint256","indexed":false,"internalType":"uint256"}],"anonymous":false},{"type":"event","name":"IntegrityViolation","inputs":[{"name":"agentId","type":"string","indexed":true,"internalType":"string"},{"name":"expectedHash","type":"bytes32","indexed":false,"internalType":"bytes32"},{"name":"providedHash","type":"bytes32","indexed":false,"internalType":"bytes32"},{"name":"timestamp","type":"uint256","indexed":false,"internalType":"uint256"}],"anonymous":false}],"bytecode":{"object":"0x608060405234801561000f575f80fd5b50335f806101000a81548173ffffffffffffffffffffffffffffffffffffffff021916908373ffffffffffffffffffffffffffffffffffffffff1602179055506123b38061005c5f395ff3fe608060405234801561000f575f80fd5b50600436106100cd575f3560e01c80638da5cb5b1161008a578063b683db2811610064578063b683db281461024f578063c822d7f01461027f578063f3b99417146102af578063fcaa7dc8146102cb576100cd565b80638da5cb5b146101e357806391cab63e14610201578063972b83a01461021f576100cd565b806323b4e0b4146100d15780633c0a4f0f146101075780635311c63614610137578063663f41a4146101675780636efa649e14610183578063794464e9146101b3575b5f80fd5b6100eb60048036038101906100e691906115d9565b6102fb565b6040516100fe9796959493929190611723565b60405180910390f35b610121600480360381019061011c91906117cf565b61050e565b60405161012e91906117fa565b60405180910390f35b610151600480360381019061014c91906115d9565b6105b4565b60405161015e919061181a565b60405180910390f35b610181600480360381019061017c9190611890565b6105e1565b005b61019d60048036038101906101989190611905565b6107f1565b6040516101aa9190611962565b60405180910390f35b6101cd60048036038101906101c89190611890565b6108a2565b6040516101da9190611aa6565b60405180910390f35b6101eb610b7f565b6040516101f89190611ac6565b60405180910390f35b610209610ba2565b6040516102169190611adf565b60405180910390f35b61023960048036038101906102349190611890565b610bae565b604051610246919061181a565b60405180910390f35b61026960048036038101906102649190611905565b610bd8565b6040516102769190611962565b60405180910390f35b610299600480360381019061029491906115d9565b610ce0565b6040516102a69190611962565b60405180910390f35b6102c960048036038101906102c49190611af8565b610d15565b005b6102e560048036038101906102e09190611905565b611288565b6040516102f29190611c55565b60405180910390f35b6001818051602081018201805184825260208301602085012081835280955050505050505f91509050805f01805461033290611ca2565b80601f016020809104026020016040519081016040528092919081815260200182805461035e90611ca2565b80156103a95780601f10610380576101008083540402835291602001916103a9565b820191905f5260205f20905b81548152906001019060200180831161038c57829003601f168201915b505050505090806001015490806002015f9054906101000a900473ffffffffffffffffffffffffffffffffffffffff1690806003015490806004015f9054906101000a900460ff169080600501805461040190611ca2565b80601f016020809104026020016040519081016040528092919081815260200182805461042d90611ca2565b80156104785780601f1061044f57610100808354040283529160200191610478565b820191905f5260205f20905b81548152906001019060200180831161045b57829003601f168201915b50505050509080600601805461048d90611ca2565b80601f01602080910402602001604051908101604052809291908181526020018280546104b990611ca2565b80156105045780601f106104db57610100808354040283529160200191610504565b820191905f5260205f20905b8154815290600101906020018083116104e757829003601f168201915b5050505050905087565b6004818154811061051d575f80fd5b905f5260205f20015f91509050805461053590611ca2565b80601f016020809104026020016040519081016040528092919081815260200182805461056190611ca2565b80156105ac5780601f10610583576101008083540402835291602001916105ac565b820191905f5260205f20905b81548152906001019060200180831161058f57829003601f168201915b505050505081565b6002818051602081018201805184825260208301602085012081835280955050505050505f915090505481565b5f8054906101000a900473ffffffffffffffffffffffffffffffffffffffff1673ffffffffffffffffffffffffffffffffffffffff163373ffffffffffffffffffffffffffffffffffffffff161461066e576040517f08c379a000000000000000000000000000000000000000000000000000000000815260040161066590611d42565b60405180910390fd5b818160038282604051610682929190611d8e565b90815260200160405180910390205f9054906101000a900460ff166106dc576040517f08c379a00000000000000000000000000000000000000000000000000000000081526004016106d390611e16565b60405180910390fd5b600184846040516106ee929190611d8e565b90815260200160405180910390206004015f9054906101000a900460ff1661074b576040517f08c379a000000000000000000000000000000000000000000000000000000000815260040161074290611ea4565b60405180910390fd5b5f6001858560405161075e929190611d8e565b90815260200160405180910390206004015f6101000a81548160ff0219169083151502179055503373ffffffffffffffffffffffffffffffffffffffff1684846040516107ac929190611d8e565b60405180910390207f82a24465969be64fa566d456c7d6ff461af1ff7348f26c9f2810a6ec669da134426040516107e39190611adf565b60405180910390a350505050565b5f60038484604051610804929190611d8e565b90815260200160405180910390205f9054906101000a900460ff1661082b575f905061089b565b6001848460405161083d929190611d8e565b90815260200160405180910390206004015f9054906101000a900460ff16610867575f905061089b565b816002858560405161087a929190611d8e565b90815260200160405180910390205414610896575f905061089b565b600190505b9392505050565b6108aa6113f5565b8282600382826040516108be929190611d8e565b90815260200160405180910390205f9054906101000a900460ff16610918576040517f08c379a000000000000000000000000000000000000000000000000000000000815260040161090f90611e16565b60405180910390fd5b6001858560405161092a929190611d8e565b90815260200160405180910390206040518060e00160405290815f8201805461095290611ca2565b80601f016020809104026020016040519081016040528092919081815260200182805461097e90611ca2565b80156109c95780601f106109a0576101008083540402835291602001916109c9565b820191905f5260205f20905b8154815290600101906020018083116109ac57829003601f168201915b5050505050815260200160018201548152602001600282015f9054906101000a900473ffffffffffffffffffffffffffffffffffffffff1673ffffffffffffffffffffffffffffffffffffffff1673ffffffffffffffffffffffffffffffffffffffff16815260200160038201548152602001600482015f9054906101000a900460ff16151515158152602001600582018054610a6590611ca2565b80601f0160208091040260200160405190810160405280929190818152602001828054610a9190611ca2565b8015610adc5780601f10610ab357610100808354040283529160200191610adc565b820191905f5260205f20905b815481529060010190602001808311610abf57829003601f168201915b50505050508152602001600682018054610af590611ca2565b80601f0160208091040260200160405190810160405280929190818152602001828054610b2190611ca2565b8015610b6c5780601f10610b4357610100808354040283529160200191610b6c565b820191905f5260205f20905b815481529060010190602001808311610b4f57829003601f168201915b5050505050815250509250505092915050565b5f8054906101000a900473ffffffffffffffffffffffffffffffffffffffff1681565b5f600480549050905090565b5f60028383604051610bc1929190611d8e565b908152602001604051809103902054905092915050565b5f60038484604051610beb929190611d8e565b90815260200160405180910390205f9054906101000a900460ff161580610c3f575060018484604051610c1f929190611d8e565b90815260200160405180910390206004015f9054906101000a900460ff16155b15610c4c575f9050610cd9565b5f60028585604051610c5f929190611d8e565b9081526020016040518091039020549050828114610cd3578484604051610c87929190611d8e565b60405180910390207fe9382d7ce41d4f300a8a92e6e3ed57ee5742263f8b5c85f8e34915165e755860828542604051610cc293929190611ec2565b60405180910390a25f915050610cd9565b60019150505b9392505050565b6003818051602081018201805184825260208301602085012081835280955050505050505f915054906101000a900460ff1681565b5f8054906101000a900473ffffffffffffffffffffffffffffffffffffffff1673ffffffffffffffffffffffffffffffffffffffff163373ffffffffffffffffffffffffffffffffffffffff1614610da2576040517f08c379a0000000000000000000000000000000000000000000000000000000008152600401610d9990611d42565b60405180910390fd5b5f8787905011610de7576040517f08c379a0000000000000000000000000000000000000000000000000000000008152600401610dde90611f67565b60405180910390fd5b5f801b8503610e2b576040517f08c379a0000000000000000000000000000000000000000000000000000000008152600401610e2290611ff5565b60405180910390fd5b60038787604051610e3d929190611d8e565b90815260200160405180910390205f9054906101000a900460ff1615610f8d575f60028888604051610e70929190611d8e565b90815260200160405180910390205490508560018989604051610e94929190611d8e565b908152602001604051809103902060010181905550848460018a8a604051610ebd929190611d8e565b90815260200160405180910390206005019182610edb9291906121ba565b50828260018a8a604051610ef0929190611d8e565b90815260200160405180910390206006019182610f0e9291906121ba565b508560028989604051610f22929190611d8e565b9081526020016040518091039020819055508787604051610f44929190611d8e565b60405180910390207ff16a09b7ecee07ff4f1a11d900225b76c475be135d29d8cdadc3d0a1aa95fd0c828842604051610f7f93929190611ec2565b60405180910390a25061127f565b6040518060e0016040528088888080601f0160208091040260200160405190810160405280939291908181526020018383808284375f81840152601f19601f8201169050808301925050505050505081526020018681526020013373ffffffffffffffffffffffffffffffffffffffff16815260200142815260200160011515815260200185858080601f0160208091040260200160405190810160405280939291908181526020018383808284375f81840152601f19601f82011690508083019250505050505050815260200183838080601f0160208091040260200160405190810160405280939291908181526020018383808284375f81840152601f19601f82011690508083019250505050505050815250600188886040516110b4929190611d8e565b90815260200160405180910390205f820151815f0190816110d59190612287565b50602082015181600101556040820151816002015f6101000a81548173ffffffffffffffffffffffffffffffffffffffff021916908373ffffffffffffffffffffffffffffffffffffffff160217905550606082015181600301556080820151816004015f6101000a81548160ff02191690831515021790555060a08201518160050190816111649190612287565b5060c082015181600601908161117a9190612287565b509050508460028888604051611191929190611d8e565b9081526020016040518091039020819055506001600388886040516111b7929190611d8e565b90815260200160405180910390205f6101000a81548160ff0219169083151502179055506004878790918060018154018082558091505060019003905f5260205f20015f9091929091929091929091925091826112159291906121ba565b503373ffffffffffffffffffffffffffffffffffffffff16878760405161123d929190611d8e565b60405180910390207f2c1722d9a061cc297fe310f42964193fc9a5f913ad301fed7ee1871e6c7105388742604051611276929190612356565b60405180910390a35b50505050505050565b611290611449565b83838080601f0160208091040260200160405190810160405280939291908181526020018383808284375f81840152601f19601f820116905080830192505050505050508160c0018190525081816080018181525050600384846040516112f8929190611d8e565b90815260200160405180910390205f9054906101000a900460ff1661134b575f815f0190151590811515815250505f8160200190151590811515815250505f8160400190151590811515815250506113ee565b5f6001858560405161135e929190611d8e565b90815260200160405180910390209050806004015f9054906101000a900460ff16826020019015159081151581525050806001015482606001818152505080600301548260a001818152505082816001015414826040019015159081151581525050806004015f9054906101000a900460ff1680156113de575081604001515b825f019015159081151581525050505b9392505050565b6040518060e00160405280606081526020015f80191681526020015f73ffffffffffffffffffffffffffffffffffffffff1681526020015f81526020015f1515815260200160608152602001606081525090565b6040518060e001604052805f151581526020015f151581526020015f151581526020015f80191681526020015f80191681526020015f8152602001606081525090565b5f604051905090565b5f80fd5b5f80fd5b5f80fd5b5f80fd5b5f601f19601f8301169050919050565b7f4e487b71000000000000000000000000000000000000000000000000000000005f52604160045260245ffd5b6114eb826114a5565b810181811067ffffffffffffffff8211171561150a576115096114b5565b5b80604052505050565b5f61151c61148c565b905061152882826114e2565b919050565b5f67ffffffffffffffff821115611547576115466114b5565b5b611550826114a5565b9050602081019050919050565b828183375f83830152505050565b5f61157d6115788461152d565b611513565b905082815260208101848484011115611599576115986114a1565b5b6115a484828561155d565b509392505050565b5f82601f8301126115c0576115bf61149d565b5b81356115d084826020860161156b565b91505092915050565b5f602082840312156115ee576115ed611495565b5b5f82013567ffffffffffffffff81111561160b5761160a611499565b5b611617848285016115ac565b91505092915050565b5f81519050919050565b5f82825260208201905092915050565b5f5b8381101561165757808201518184015260208101905061163c565b5f8484015250505050565b5f61166c82611620565b611676818561162a565b935061168681856020860161163a565b61168f816114a5565b840191505092915050565b5f819050919050565b6116ac8161169a565b82525050565b5f73ffffffffffffffffffffffffffffffffffffffff82169050919050565b5f6116db826116b2565b9050919050565b6116eb816116d1565b82525050565b5f819050919050565b611703816116f1565b82525050565b5f8115159050919050565b61171d81611709565b82525050565b5f60e0820190508181035f83015261173b818a611662565b905061174a60208301896116a3565b61175760408301886116e2565b61176460608301876116fa565b6117716080830186611714565b81810360a08301526117838185611662565b905081810360c08301526117978184611662565b905098975050505050505050565b6117ae816116f1565b81146117b8575f80fd5b50565b5f813590506117c9816117a5565b92915050565b5f602082840312156117e4576117e3611495565b5b5f6117f1848285016117bb565b91505092915050565b5f6020820190508181035f8301526118128184611662565b905092915050565b5f60208201905061182d5f8301846116a3565b92915050565b5f80fd5b5f80fd5b5f8083601f8401126118505761184f61149d565b5b8235905067ffffffffffffffff81111561186d5761186c611833565b5b60208301915083600182028301111561188957611888611837565b5b9250929050565b5f80602083850312156118a6576118a5611495565b5b5f83013567ffffffffffffffff8111156118c3576118c2611499565b5b6118cf8582860161183b565b92509250509250929050565b6118e48161169a565b81146118ee575f80fd5b50565b5f813590506118ff816118db565b92915050565b5f805f6040848603121561191c5761191b611495565b5b5f84013567ffffffffffffffff81111561193957611938611499565b5b6119458682870161183b565b93509350506020611958868287016118f1565b9150509250925092565b5f6020820190506119755f830184611714565b92915050565b5f82825260208201905092915050565b5f61199582611620565b61199f818561197b565b93506119af81856020860161163a565b6119b8816114a5565b840191505092915050565b6119cc8161169a565b82525050565b6119db816116d1565b82525050565b6119ea816116f1565b82525050565b6119f981611709565b82525050565b5f60e083015f8301518482035f860152611a19828261198b565b9150506020830151611a2e60208601826119c3565b506040830151611a4160408601826119d2565b506060830151611a5460608601826119e1565b506080830151611a6760808601826119f0565b5060a083015184820360a0860152611a7f828261198b565b91505060c083015184820360c0860152611a99828261198b565b9150508091505092915050565b5f6020820190508181035f830152611abe81846119ff565b905092915050565b5f602082019050611ad95f8301846116e2565b92915050565b5f602082019050611af25f8301846116fa565b92915050565b5f805f805f805f6080888a031215611b1357611b12611495565b5b5f88013567ffffffffffffffff811115611b3057611b2f611499565b5b611b3c8a828b0161183b565b97509750506020611b4f8a828b016118f1565b955050604088013567ffffffffffffffff811115611b7057611b6f611499565b5b611b7c8a828b0161183b565b9450945050606088013567ffffffffffffffff811115611b9f57611b9e611499565b5b611bab8a828b0161183b565b925092505092959891949750929550565b5f60e083015f830151611bd15f8601826119f0565b506020830151611be460208601826119f0565b506040830151611bf760408601826119f0565b506060830151611c0a60608601826119c3565b506080830151611c1d60808601826119c3565b5060a0830151611c3060a08601826119e1565b5060c083015184820360c0860152611c48828261198b565b9150508091505092915050565b5f6020820190508181035f830152611c6d8184611bbc565b905092915050565b7f4e487b71000000000000000000000000000000000000000000000000000000005f52602260045260245ffd5b5f6002820490506001821680611cb957607f821691505b602082108103611ccc57611ccb611c75565b5b50919050565b7f4167656e744964656e7469747952656769737472793a2063616c6c65722069735f8201527f206e6f7420746865206f776e6572000000000000000000000000000000000000602082015250565b5f611d2c602e8361162a565b9150611d3782611cd2565b604082019050919050565b5f6020820190508181035f830152611d5981611d20565b9050919050565b5f81905092915050565b5f611d758385611d60565b9350611d8283858461155d565b82840190509392505050565b5f611d9a828486611d6a565b91508190509392505050565b7f4167656e744964656e7469747952656769737472793a206167656e74206e6f745f8201527f2072656769737465726564000000000000000000000000000000000000000000602082015250565b5f611e00602b8361162a565b9150611e0b82611da6565b604082019050919050565b5f6020820190508181035f830152611e2d81611df4565b9050919050565b7f4167656e744964656e7469747952656769737472793a206167656e7420616c725f8201527f65616479207265766f6b65640000000000000000000000000000000000000000602082015250565b5f611e8e602c8361162a565b9150611e9982611e34565b604082019050919050565b5f6020820190508181035f830152611ebb81611e82565b9050919050565b5f606082019050611ed55f8301866116a3565b611ee260208301856116a3565b611eef60408301846116fa565b949350505050565b7f4167656e744964656e7469747952656769737472793a206167656e74496420635f8201527f616e6e6f7420626520656d707479000000000000000000000000000000000000602082015250565b5f611f51602e8361162a565b9150611f5c82611ef7565b604082019050919050565b5f6020820190508181035f830152611f7e81611f45565b9050919050565b7f4167656e744964656e7469747952656769737472793a20636f646548617368205f8201527f63616e6e6f74206265207a65726f000000000000000000000000000000000000602082015250565b5f611fdf602e8361162a565b9150611fea82611f85565b604082019050919050565b5f6020820190508181035f83015261200c81611fd3565b9050919050565b5f82905092915050565b5f819050815f5260205f209050919050565b5f6020601f8301049050919050565b5f82821b905092915050565b5f600883026120797fffffffffffffffffffffffffffffffffffffffffffffffffffffffffffffffff8261203e565b612083868361203e565b95508019841693508086168417925050509392505050565b5f819050919050565b5f6120be6120b96120b4846116f1565b61209b565b6116f1565b9050919050565b5f819050919050565b6120d7836120a4565b6120eb6120e3826120c5565b84845461204a565b825550505050565b5f90565b6120ff6120f3565b61210a8184846120ce565b505050565b5b8181101561212d576121225f826120f7565b600181019050612110565b5050565b601f821115612172576121438161201d565b61214c8461202f565b8101602085101561215b578190505b61216f6121678561202f565b83018261210f565b50505b505050565b5f82821c905092915050565b5f6121925f1984600802612177565b1980831691505092915050565b5f6121aa8383612183565b9150826002028217905092915050565b6121c48383612013565b67ffffffffffffffff8111156121dd576121dc6114b5565b5b6121e78254611ca2565b6121f2828285612131565b5f601f83116001811461221f575f841561220d578287013590505b612217858261219f565b86555061227e565b601f19841661222d8661201d565b5f5b828110156122545784890135825560018201915060208501945060208101905061222f565b86831015612271578489013561226d601f891682612183565b8355505b6001600288020188555050505b50505050505050565b61229082611620565b67ffffffffffffffff8111156122a9576122a86114b5565b5b6122b38254611ca2565b6122be828285612131565b5f60209050601f8311600181146122ef575f84156122dd578287015190505b6122e7858261219f565b86555061234e565b601f1984166122fd8661201d565b5f5b82811015612324578489015182556001820191506020850194506020810190506122ff565b86831015612341578489015161233d601f891682612183565b8355505b6001600288020188555050505b505050505050565b5f6040820190506123695f8301856116a3565b61237660208301846116fa565b939250505056fea26469706673582212203ba5716421c566da8ae9e6e4769a600b2e64a710a243bde98a851dc15da5c9b764736f6c63430008140033","linkReferences":{}},"methodIdentifiers":{"agentHashes(string)":"5311c636","agentRecords(string)":"23b4e0b4","getAgent(string)":"794464e9","getAgentCount()":"91cab63e","getCodeHash(string)":"972b83a0","isRegistered(string)":"c822d7f0","owner()":"8da5cb5b","registerAgent(string,bytes32,string,string)":"f3b99417","registeredAgentIds(uint256)":"3c0a4f0f","revokeAgent(string)":"663f41a4","verifyAgent(string,bytes32)":"6efa649e","verifyAgentAndLog(string,bytes32)":"b683db28","verifyAgentFull(string,bytes32)":"fcaa7dc8"},"id":17}