{"abi":[{"type":"constructor","inputs":[],"stateMutability":"nonpayable"},{"type":"function","name":"agentActionCount","inputs":[{"name":"","type":"string","internalType":"string"}],"outputs":[{"name":"","type":"uint256","internalType":"uint256"}],"stateMutability":"view"},{"type":"function","name":"getRecord","inputs":[{"name":"index","type":"uint256","internalType":"uint256"}],"outputs":[{"name":"","type":"tuple","internalType":"struct AgentAuditLog.ActionRecord","components":[{"name":"runId","type":"string","internalType":"string"},{"name":"agentId","type":"string","internalType":"string"},{"name":"action","type":"string","internalType":"string"},{"name":"inputHash","type":"bytes32","internalType":"bytes32"},{"name":"outputHash","type":"bytes32","internalType":"bytes32"},{"name":"timestamp","type":"uint256","internalType":"uint256"},{"name":"stepIndex","type":"uint256","internalType":"uint256"},{"name":"metadata","type":"string","internalType":"string"},{"name":"txSender","type":"address","internalType":"address"}]}],"stateMutability":"view"},{"type":"function","name":"getRecordsBatch","inputs":[{"name":"indices","type":"uint256[]","internalType":"uint256[]"}],"outputs":[{"name":"batch","type":"tuple[]","internalType":"struct AgentAuditLog.ActionRecord[]","components":[{"name":"runId","type":"string","internalType":"string"},{"name":"agentId","type":"string","internalType":"string"},{"name":"action","type":"string","internalType":"string"},{"name":"inputHash","type":"bytes32","internalType":"bytes32"},{"name":"outputHash","type":"bytes32","internalType":"bytes32"},{"name":"timestamp","type":"uint256","internalType":"uint256"},{"name":"stepIndex","type":"uint256","internalType":"uint256"},{"name":"metadata","type":"string","internalType":"string"},{"name":"txSender","type":"address","internalType":"address"}]}],"stateMutability":"view"},{"type":"function","name":"getRunRecordIndices","inputs":[{"name":"runId","type":"string","internalType":"string"}],"outputs":[{"name":"","type":"uint256[]","internalType":"uint256[]"}],"stateMutability":"view"},{"type":"function","name":"getTotalRecords","inputs":[],"outputs":[{"name":"","type":"uint256","internalType":"uint256"}],"stateMutability":"view"},{"type":"function","name":"logAction","inputs":[{"name":"runId","type":"string","internalType":"string"},{"name":"agentId","type":"string","internalType":"string"},{"name":"action","type":"string","internalType":"string"},{"name":"inputHash","type":"bytes32","internalType":"bytes32"},{"name":"outputHash","type":"bytes32","internalType":"bytes32"},{"name":"stepIndex","type":"uint256","internalType":"uint256"},{"name":"metadata","type":"string","internalType":"string"}],"outputs":[{"name":"recordIndex","type":"uint256","internalType":"uint256"}],"stateMutability":"nonpayable"},{"type":"function","name":"owner","inputs":[],"outputs":[{"name":"","type":"address","internalType":"address"}],"stateMutability":"view"},{"type":"function","name":"records","inputs":[{"name":"","type":"uint256","internalType":"uint256"}],"outputs":[{"name":"runId","type":"string","internalType":"string"},{"name":"agentId","type":"string","internalType":"string"},{"name":"action","type":"string","internalType":"string"},{"name":"inputHash","type":"bytes32","internalType":"bytes32"},{"name":"outputHash","type":"bytes32","internalType":"bytes32"},{"name":"timestamp","type":"uint256","internalType":"uint256"},{"name":"stepIndex","type":"uint256","internalType":"uint256"},{"name":"metadata","type":"string","internalType":"string"},{"name":"txSender","type":"address","internalType":"address"}],"stateMutability":"view"},{"type":"function","name":"runRecords","inputs":[{"name":"","type":"string","internalType":"string"},{"name":"","type":"uint256","internalType":"uint256"}],"outputs":[{"name":"","type":"uint256","internalType":"uint256"}],"stateMutability":"view"},{"type":"function","name":"verifyRecord","inputs":[{"name":"index","type":"uint256","internalType":"uint256"},{"name":"rawInput","type":"string","internalType":"string"},{"name":"rawOutput","type":"string","internalType":"string"}],"outputs":[{"name":"inputMatch","type":"bool","internalType":"bool"},{"name":"outputMatch","type":"bool","internalType":"bool"}],"stateMutability":"view"},{"type":"event","name":"ActionLogged","inputs":[{"name":"runId","type":"string","indexed":true,"internalType":"string"},{"name":"agentId","type":"string","indexed":true,"internalType":"string"},{"name":"action","type":"string","indexed":false,"internalType":"string"},{"name":"stepIndex","type":"uint256","indexed":false,"internalType":"uint256"},{"name":"inputHash","type":"bytes32","indexed":false,"internalType":"bytes32"},{"name":"outputHash","type":"bytes32","indexed":false,"internalType":"bytes32"},{"name":"timestamp","type":"uint256","indexed":false,"internalType":"uint256"},{"name":"recordIndex","type":"uint256","indexed":false,"internalType":"uint256"}],"anonymous":false},{"type":"error","name":"EmptyAgentId","inputs":[]},{"type":"error","name":"EmptyRunId","inputs":[]},{"type":"error","name":"InvalidAction","inputs":[]},{"type":"error","name":"OnlyOwner","inputs":[]}],"bytecode":{"object":"0x608060405234801561000f575f80fd5b50335f806101000a81548173ffffffffffffffffffffffffffffffffffffffff021916908373ffffffffffffffffffffffffffffffffffffffff16021790555061251b8061005c5f395ff3fe608060405234801561000f575f80fd5b506004361061009c575f3560e01c80638da5cb5b116100645780638da5cb5b14610186578063a0c0321c146101a4578063b327b124146101d5578063c646362d14610205578063ef8d659d146102355761009c565b806303e9e609146100a05780630aeacb5e146100d057806310b924bb146100ee578063344610671461011e57806339c4d52c14610156575b5f80fd5b6100ba60048036038101906100b59190611520565b610265565b6040516100c79190611712565b60405180910390f35b6100d861055c565b6040516100e59190611741565b60405180910390f35b61010860048036038101906101039190611886565b610568565b6040516101159190611741565b60405180910390f35b61013860048036038101906101339190611520565b6105ab565b60405161014d99989796959493929190611946565b60405180910390f35b610170600480360381019061016b9190611a74565b61083b565b60405161017d9190611741565b60405180910390f35b61018e610cd9565b60405161019b9190611b91565b60405180910390f35b6101be60048036038101906101b99190611baa565b610cfc565b6040516101cc929190611c55565b60405180910390f35b6101ef60048036038101906101ea9190611cd1565b611034565b6040516101fc9190611eae565b60405180910390f35b61021f600480360381019061021a9190611ece565b6113d5565b60405161022c9190611fc1565b60405180910390f35b61024f600480360381019061024a9190611fe1565b61144c565b60405161025c9190611741565b60405180910390f35b61026d611479565b6001828154811061028157610280612028565b5b905f5260205f209060090201604051806101200160405290815f820180546102a890612082565b80601f01602080910402602001604051908101604052809291908181526020018280546102d490612082565b801561031f5780601f106102f65761010080835404028352916020019161031f565b820191905f5260205f20905b81548152906001019060200180831161030257829003601f168201915b5050505050815260200160018201805461033890612082565b80601f016020809104026020016040519081016040528092919081815260200182805461036490612082565b80156103af5780601f10610386576101008083540402835291602001916103af565b820191905f5260205f20905b81548152906001019060200180831161039257829003601f168201915b505050505081526020016002820180546103c890612082565b80601f01602080910402602001604051908101604052809291908181526020018280546103f490612082565b801561043f5780601f106104165761010080835404028352916020019161043f565b820191905f5260205f20905b81548152906001019060200180831161042257829003601f168201915b505050505081526020016003820154815260200160048201548152602001600582015481526020016006820154815260200160078201805461048090612082565b80601f01602080910402602001604051908101604052809291908181526020018280546104ac90612082565b80156104f75780601f106104ce576101008083540402835291602001916104f7565b820191905f5260205f20905b8154815290600101906020018083116104da57829003601f168201915b50505050508152602001600882015f9054906101000a900473ffffffffffffffffffffffffffffffffffffffff1673ffffffffffffffffffffffffffffffffffffffff1673ffffffffffffffffffffffffffffffffffffffff16815250509050919050565b5f600180549050905090565b6002828051602081018201805184825260208301602085012081835280955050505050508181548110610599575f80fd5b905f5260205f20015f91509150505481565b600181815481106105ba575f80fd5b905f5260205f2090600902015f91509050805f0180546105d990612082565b80601f016020809104026020016040519081016040528092919081815260200182805461060590612082565b80156106505780601f1061062757610100808354040283529160200191610650565b820191905f5260205f20905b81548152906001019060200180831161063357829003601f168201915b50505050509080600101805461066590612082565b80601f016020809104026020016040519081016040528092919081815260200182805461069190612082565b80156106dc5780601f106106b3576101008083540402835291602001916106dc565b820191905f5260205f20905b8154815290600101906020018083116106bf57829003601f168201915b5050505050908060020180546106f190612082565b80601f016020809104026020016040519081016040528092919081815260200182805461071d90612082565b80156107685780601f1061073f57610100808354040283529160200191610768565b820191905f5260205f20905b81548152906001019060200180831161074b57829003601f168201915b50505050509080600301549080600401549080600501549080600601549080600701805461079590612082565b80601f01602080910402602001604051908101604052809291908181526020018280546107c190612082565b801561080c5780601f106107e35761010080835404028352916020019161080c565b820191905f5260205f20905b8154815290600101906020018083116107ef57829003601f168201915b505050505090806008015f9054906101000a900473ffffffffffffffffffffffffffffffffffffffff16905089565b5f805f9054906101000a900473ffffffffffffffffffffffffffffffffffffffff1673ffffffffffffffffffffffffffffffffffffffff163373ffffffffffffffffffffffffffffffffffffffff16146108c1576040517f5fc483c500000000000000000000000000000000000000000000000000000000815260040160405180910390fd5b5f8c8c9050036108fd576040517ffa9930ae00000000000000000000000000000000000000000000000000000000815260040160405180910390fd5b5f8a8a905003610939576040517f3f7f02e900000000000000000000000000000000000000000000000000000000815260040160405180910390fd5b5f8888905003610975576040517f4a7f394f00000000000000000000000000000000000000000000000000000000815260040160405180910390fd5b5f6040518061012001604052808e8e8080601f0160208091040260200160405190810160405280939291908181526020018383808284375f81840152601f19601f8201169050808301925050505050505081526020018c8c8080601f0160208091040260200160405190810160405280939291908181526020018383808284375f81840152601f19601f8201169050808301925050505050505081526020018a8a8080601f0160208091040260200160405190810160405280939291908181526020018383808284375f81840152601f19601f82011690508083019250505050505050815260200188815260200187815260200142815260200186815260200185858080601f0160208091040260200160405190810160405280939291908181526020018383808284375f81840152601f19601f8201169050808301925050505050505081526020013373ffffffffffffffffffffffffffffffffffffffff168152509050600181908060018154018082558091505060019003905f5260205f2090600902015f909190919091505f820151815f019081610b16919061224f565b506020820151816001019081610b2c919061224f565b506040820151816002019081610b42919061224f565b50606082015181600301556080820151816004015560a0820151816005015560c0820151816006015560e0820151816007019081610b80919061224f565b50610100820151816008015f6101000a81548173ffffffffffffffffffffffffffffffffffffffff021916908373ffffffffffffffffffffffffffffffffffffffff160217905550505060018080549050610bdb919061234b565b915060028d8d604051610bef9291906123ac565b908152602001604051809103902082908060018154018082558091505060019003905f5260205f20015f909190919091505560038b8b604051610c339291906123ac565b90815260200160405180910390205f815480929190610c51906123c4565b91905055508a8a604051610c669291906123ac565b60405180910390208d8d604051610c7e9291906123ac565b60405180910390207f77c6888d2054728769b2c0fd4204230072cfeb1c89f2c5fa01f73771fc3765fc8b8b898c8c428a604051610cc19796959493929190612437565b60405180910390a3509b9a5050505050505050505050565b5f8054906101000a900473ffffffffffffffffffffffffffffffffffffffff1681565b5f805f60018881548110610d1357610d12612028565b5b905f5260205f209060090201604051806101200160405290815f82018054610d3a90612082565b80601f0160208091040260200160405190810160405280929190818152602001828054610d6690612082565b8015610db15780601f10610d8857610100808354040283529160200191610db1565b820191905f5260205f20905b815481529060010190602001808311610d9457829003601f168201915b50505050508152602001600182018054610dca90612082565b80601f0160208091040260200160405190810160405280929190818152602001828054610df690612082565b8015610e415780601f10610e1857610100808354040283529160200191610e41565b820191905f5260205f20905b815481529060010190602001808311610e2457829003601f168201915b50505050508152602001600282018054610e5a90612082565b80601f0160208091040260200160405190810160405280929190818152602001828054610e8690612082565b8015610ed15780601f10610ea857610100808354040283529160200191610ed1565b820191905f5260205f20905b815481529060010190602001808311610eb457829003601f168201915b5050505050815260200160038201548152602001600482015481526020016005820154815260200160068201548152602001600782018054610f1290612082565b80601f0160208091040260200160405190810160405280929190818152602001828054610f3e90612082565b8015610f895780601f10610f6057610100808354040283529160200191610f89565b820191905f5260205f20905b815481529060010190602001808311610f6c57829003601f168201915b50505050508152602001600882015f9054906101000a900473ffffffffffffffffffffffffffffffffffffffff1673ffffffffffffffffffffffffffffffffffffffff1673ffffffffffffffffffffffffffffffffffffffff1681525050905080606001518787604051610ffe9291906124cd565b60405180910390201492508060800151858560405161101e9291906124cd565b6040518091039020149150509550959350505050565b60608282905067ffffffffffffffff81111561105357611052611762565b5b60405190808252806020026020018201604052801561108c57816020015b611079611479565b8152602001906001900390816110715790505b5090505f5b838390508110156113ce5760018484838181106110b1576110b0612028565b5b90506020020135815481106110c9576110c8612028565b5b905f5260205f209060090201604051806101200160405290815f820180546110f090612082565b80601f016020809104026020016040519081016040528092919081815260200182805461111c90612082565b80156111675780601f1061113e57610100808354040283529160200191611167565b820191905f5260205f20905b81548152906001019060200180831161114a57829003601f168201915b5050505050815260200160018201805461118090612082565b80601f01602080910402602001604051908101604052809291908181526020018280546111ac90612082565b80156111f75780601f106111ce576101008083540402835291602001916111f7565b820191905f5260205f20905b8154815290600101906020018083116111da57829003601f168201915b5050505050815260200160028201805461121090612082565b80601f016020809104026020016040519081016040528092919081815260200182805461123c90612082565b80156112875780601f1061125e57610100808354040283529160200191611287565b820191905f5260205f20905b81548152906001019060200180831161126a57829003601f168201915b50505050508152602001600382015481526020016004820154815260200160058201548152602001600682015481526020016007820180546112c890612082565b80601f01602080910402602001604051908101604052809291908181526020018280546112f490612082565b801561133f5780601f106113165761010080835404028352916020019161133f565b820191905f5260205f20905b81548152906001019060200180831161132257829003601f168201915b50505050508152602001600882015f9054906101000a900473ffffffffffffffffffffffffffffffffffffffff1673ffffffffffffffffffffffffffffffffffffffff1673ffffffffffffffffffffffffffffffffffffffff16815250508282815181106113b0576113af612028565b5b602002602001018190525080806113c6906123c4565b915050611091565b5092915050565b6060600283836040516113e99291906123ac565b908152602001604051809103902080548060200260200160405190810160405280929190818152602001828054801561143f57602002820191905f5260205f20905b81548152602001906001019080831161142b575b5050505050905092915050565b6003818051602081018201805184825260208301602085012081835280955050505050505f915090505481565b6040518061012001604052806060815260200160608152602001606081526020015f80191681526020015f80191681526020015f81526020015f8152602001606081526020015f73ffffffffffffffffffffffffffffffffffffffff1681525090565b5f604051905090565b5f80fd5b5f80fd5b5f819050919050565b6114ff816114ed565b8114611509575f80fd5b50565b5f8135905061151a816114f6565b92915050565b5f60208284031215611535576115346114e5565b5b5f6115428482850161150c565b91505092915050565b5f81519050919050565b5f82825260208201905092915050565b5f5b83811015611582578082015181840152602081019050611567565b5f8484015250505050565b5f601f19601f8301169050919050565b5f6115a78261154b565b6115b18185611555565b93506115c1818560208601611565565b6115ca8161158d565b840191505092915050565b5f819050919050565b6115e7816115d5565b82525050565b6115f6816114ed565b82525050565b5f73ffffffffffffffffffffffffffffffffffffffff82169050919050565b5f611625826115fc565b9050919050565b6116358161161b565b82525050565b5f61012083015f8301518482035f860152611656828261159d565b91505060208301518482036020860152611670828261159d565b9150506040830151848203604086015261168a828261159d565b915050606083015161169f60608601826115de565b5060808301516116b260808601826115de565b5060a08301516116c560a08601826115ed565b5060c08301516116d860c08601826115ed565b5060e083015184820360e08601526116f0828261159d565b91505061010083015161170761010086018261162c565b508091505092915050565b5f6020820190508181035f83015261172a818461163b565b905092915050565b61173b816114ed565b82525050565b5f6020820190506117545f830184611732565b92915050565b5f80fd5b5f80fd5b7f4e487b71000000000000000000000000000000000000000000000000000000005f52604160045260245ffd5b6117988261158d565b810181811067ffffffffffffffff821117156117b7576117b6611762565b5b80604052505050565b5f6117c96114dc565b90506117d5828261178f565b919050565b5f67ffffffffffffffff8211156117f4576117f3611762565b5b6117fd8261158d565b9050602081019050919050565b828183375f83830152505050565b5f61182a611825846117da565b6117c0565b9050828152602081018484840111156118465761184561175e565b5b61185184828561180a565b509392505050565b5f82601f83011261186d5761186c61175a565b5b813561187d848260208601611818565b91505092915050565b5f806040838503121561189c5761189b6114e5565b5b5f83013567ffffffffffffffff8111156118b9576118b86114e9565b5b6118c585828601611859565b92505060206118d68582860161150c565b9150509250929050565b5f82825260208201905092915050565b5f6118fa8261154b565b61190481856118e0565b9350611914818560208601611565565b61191d8161158d565b840191505092915050565b611931816115d5565b82525050565b6119408161161b565b82525050565b5f610120820190508181035f83015261195f818c6118f0565b90508181036020830152611973818b6118f0565b90508181036040830152611987818a6118f0565b90506119966060830189611928565b6119a36080830188611928565b6119b060a0830187611732565b6119bd60c0830186611732565b81810360e08301526119cf81856118f0565b90506119df610100830184611937565b9a9950505050505050505050565b5f80fd5b5f80fd5b5f8083601f840112611a0a57611a0961175a565b5b8235905067ffffffffffffffff811115611a2757611a266119ed565b5b602083019150836001820283011115611a4357611a426119f1565b5b9250929050565b611a53816115d5565b8114611a5d575f80fd5b50565b5f81359050611a6e81611a4a565b92915050565b5f805f805f805f805f805f60e08c8e031215611a9357611a926114e5565b5b5f8c013567ffffffffffffffff811115611ab057611aaf6114e9565b5b611abc8e828f016119f5565b9b509b505060208c013567ffffffffffffffff811115611adf57611ade6114e9565b5b611aeb8e828f016119f5565b995099505060408c013567ffffffffffffffff811115611b0e57611b0d6114e9565b5b611b1a8e828f016119f5565b97509750506060611b2d8e828f01611a60565b9550506080611b3e8e828f01611a60565b94505060a0611b4f8e828f0161150c565b93505060c08c013567ffffffffffffffff811115611b7057611b6f6114e9565b5b611b7c8e828f016119f5565b92509250509295989b509295989b9093969950565b5f602082019050611ba45f830184611937565b92915050565b5f805f805f60608688031215611bc357611bc26114e5565b5b5f611bd08882890161150c565b955050602086013567ffffffffffffffff811115611bf157611bf06114e9565b5b611bfd888289016119f5565b9450945050604086013567ffffffffffffffff811115611c2057611c1f6114e9565b5b611c2c888289016119f5565b92509250509295509295909350565b5f8115159050919050565b611c4f81611c3b565b82525050565b5f604082019050611c685f830185611c46565b611c756020830184611c46565b9392505050565b5f8083601f840112611c9157611c9061175a565b5b8235905067ffffffffffffffff811115611cae57611cad6119ed565b5b602083019150836020820283011115611cca57611cc96119f1565b5b9250929050565b5f8060208385031215611ce757611ce66114e5565b5b5f83013567ffffffffffffffff811115611d0457611d036114e9565b5b611d1085828601611c7c565b92509250509250929050565b5f81519050919050565b5f82825260208201905092915050565b5f819050602082019050919050565b5f61012083015f8301518482035f860152611d60828261159d565b91505060208301518482036020860152611d7a828261159d565b91505060408301518482036040860152611d94828261159d565b9150506060830151611da960608601826115de565b506080830151611dbc60808601826115de565b5060a0830151611dcf60a08601826115ed565b5060c0830151611de260c08601826115ed565b5060e083015184820360e0860152611dfa828261159d565b915050610100830151611e1161010086018261162c565b508091505092915050565b5f611e278383611d45565b905092915050565b5f602082019050919050565b5f611e4582611d1c565b611e4f8185611d26565b935083602082028501611e6185611d36565b805f5b85811015611e9c5784840389528151611e7d8582611e1c565b9450611e8883611e2f565b925060208a01995050600181019050611e64565b50829750879550505050505092915050565b5f6020820190508181035f830152611ec68184611e3b565b905092915050565b5f8060208385031215611ee457611ee36114e5565b5b5f83013567ffffffffffffffff811115611f0157611f006114e9565b5b611f0d858286016119f5565b92509250509250929050565b5f81519050919050565b5f82825260208201905092915050565b5f819050602082019050919050565b5f611f4d83836115ed565b60208301905092915050565b5f602082019050919050565b5f611f6f82611f19565b611f798185611f23565b9350611f8483611f33565b805f5b83811015611fb4578151611f9b8882611f42565b9750611fa683611f59565b925050600181019050611f87565b5085935050505092915050565b5f6020820190508181035f830152611fd98184611f65565b905092915050565b5f60208284031215611ff657611ff56114e5565b5b5f82013567ffffffffffffffff811115612013576120126114e9565b5b61201f84828501611859565b91505092915050565b7f4e487b71000000000000000000000000000000000000000000000000000000005f52603260045260245ffd5b7f4e487b71000000000000000000000000000000000000000000000000000000005f52602260045260245ffd5b5f600282049050600182168061209957607f821691505b6020821081036120ac576120ab612055565b5b50919050565b5f819050815f5260205f209050919050565b5f6020601f8301049050919050565b5f82821b905092915050565b5f6008830261210e7fffffffffffffffffffffffffffffffffffffffffffffffffffffffffffffffff826120d3565b61211886836120d3565b95508019841693508086168417925050509392505050565b5f819050919050565b5f61215361214e612149846114ed565b612130565b6114ed565b9050919050565b5f819050919050565b61216c83612139565b6121806121788261215a565b8484546120df565b825550505050565b5f90565b612194612188565b61219f818484612163565b505050565b5b818110156121c2576121b75f8261218c565b6001810190506121a5565b5050565b601f821115612207576121d8816120b2565b6121e1846120c4565b810160208510156121f0578190505b6122046121fc856120c4565b8301826121a4565b50505b505050565b5f82821c905092915050565b5f6122275f198460080261220c565b1980831691505092915050565b5f61223f8383612218565b9150826002028217905092915050565b6122588261154b565b67ffffffffffffffff81111561227157612270611762565b5b61227b8254612082565b6122868282856121c6565b5f60209050601f8311600181146122b7575f84156122a5578287015190505b6122af8582612234565b865550612316565b601f1984166122c5866120b2565b5f5b828110156122ec578489015182556001820191506020850194506020810190506122c7565b868310156123095784890151612305601f891682612218565b8355505b6001600288020188555050505b505050505050565b7f4e487b71000000000000000000000000000000000000000000000000000000005f52601160045260245ffd5b5f612355826114ed565b9150612360836114ed565b92508282039050818111156123785761237761231e565b5b92915050565b5f81905092915050565b5f612393838561237e565b93506123a083858461180a565b82840190509392505050565b5f6123b8828486612388565b91508190509392505050565b5f6123ce826114ed565b91507fffffffffffffffffffffffffffffffffffffffffffffffffffffffffffffffff8203612400576123ff61231e565b5b600182019050919050565b5f61241683856118e0565b935061242383858461180a565b61242c8361158d565b840190509392505050565b5f60c0820190508181035f83015261245081898b61240b565b905061245f6020830188611732565b61246c6040830187611928565b6124796060830186611928565b6124866080830185611732565b61249360a0830184611732565b98975050505050505050565b5f81905092915050565b5f6124b4838561249f565b93506124c183858461180a565b82840190509392505050565b5f6124d98284866124a9565b9150819050939250505056fea2646970667358221220d256bc1b87c62d6561d0d14c8cbcc777284cd7a3cc6ca5e335a162590969379764736f6c63430008140033","linkReferences":{}},"methodIdentifiers":{"agentActionCount(string)":"ef8d659d","getRecord(uint256)":"03e9e609","getRecordsBatch(uint256[])":"b327b124","getRunRecordIndices(string)":"c646362d","getTotalRecords()":"0aeacb5e","logAction(string,string,string,bytes32,bytes32,uint256,string)":"39c4d52c","owner()":"8da5cb5b","records(uint256)":"34461067","runRecords(string,uint256)":"10b924bb","verifyRecord(uint256,string,string)":"a0c0321c"},"id":16}