{"abi":[{"type":"constructor","inputs":[],"stateMutability":"nonpayable"},{"type":"function","name":"allRunIds","inputs":[{"name":"","type":"uint256","internalType":"uint256"}],"outputs":[{"name":"","type":"string","internalType":"string"}],"stateMutability":"view"},{"type":"function","name":"getLatestRunId","inputs":[],"outputs":[{"name":"","type":"string","internalType":"string"}],"stateMutability":"view"},{"type":"function","name":"getRunCount","inputs":[],"outputs":[{"name":"","type":"uint256","internalType":"uint256"}],"stateMutability":"view"},{"type":"function","name":"getRunLeaderboard","inputs":[{"name":"runId","type":"string","internalType":"string"}],"outputs":[{"name":"agentIds","type":"string[]","internalType":"string[]"},{"name":"agentScores","type":"uint256[]","internalType":"uint256[]"}],"stateMutability":"view"},{"type":"function","name":"getScore","inputs":[{"name":"agentId","type":"string","internalType":"string"},{"name":"runId","type":"string","internalType":"string"}],"outputs":[{"name":"","type":"uint256","internalType":"uint256"}],"stateMutability":"view"},{"type":"function","name":"getScoreFull","inputs":[{"name":"agentId","type":"string","internalType":"string"},{"name":"runId","type":"string","internalType":"string"}],"outputs":[{"name":"","type":"tuple","internalType":"struct TrustScoreRegistry.ScoreRecord","components":[{"name":"currentScore","type":"uint256","internalType":"uint256"},{"name":"updateCount","type":"uint256","internalType":"uint256"},{"name":"lastUpdatedAt","type":"uint256","internalType":"uint256"},{"name":"hasScore","type":"bool","internalType":"bool"}]}],"stateMutability":"view"},{"type":"function","name":"getScoreHistory","inputs":[{"name":"agentId","type":"string","internalType":"string"},{"name":"runId","type":"string","internalType":"string"}],"outputs":[{"name":"","type":"tuple[]","internalType":"struct TrustScoreRegistry.ScoreUpdate[]","components":[{"name":"score","type":"uint256","internalType":"uint256"},{"name":"timestamp","type":"uint256","internalType":"uint256"},{"name":"reason","type":"string","internalType":"string"}]}],"stateMutability":"view"},{"type":"function","name":"hasScore","inputs":[{"name":"","type":"string","internalType":"string"},{"name":"","type":"string","internalType":"string"}],"outputs":[{"name":"","type":"bool","internalType":"bool"}],"stateMutability":"view"},{"type":"function","name":"lastUpdatedAt","inputs":[{"name":"","type":"string","internalType":"string"},{"name":"","type":"string","internalType":"string"}],"outputs":[{"name":"","type":"uint256","internalType":"uint256"}],"stateMutability":"view"},{"type":"function","name":"owner","inputs":[],"outputs":[{"name":"","type":"address","internalType":"address"}],"stateMutability":"view"},{"type":"function","name":"resetRun","inputs":[{"name":"runId","type":"string","internalType":"string"}],"outputs":[],"stateMutability":"nonpayable"},{"type":"function","name":"runAgents","inputs":[{"name":"","type":"string","internalType":"string"},{"name":"","type":"uint256","internalType":"uint256"}],"outputs":[{"name":"","type":"string","internalType":"string"}],"stateMutability":"view"},{"type":"function","name":"runExists","inputs":[{"name":"","type":"string","internalType":"string"}],"outputs":[{"name":"","type":"bool","internalType":"bool"}],"stateMutability":"view"},{"type":"function","name":"scoreHistory","inputs":[{"name":"","type":"string","internalType":"string"},{"name":"","type":"string","internalType":"string"},{"name":"","type":"uint256","internalType":"uint256"}],"outputs":[{"name":"score","type":"uint256","internalType":"uint256"},{"name":"timestamp","type":"uint256","internalType":"uint256"},{"name":"reason","type":"string","internalType":"string"}],"stateMutability":"view"},{"type":"function","name":"scores","inputs":[{"name":"","type":"string","internalType":"string"},{"name":"","type":"string","internalType":"string"}],"outputs":[{"name":"","type":"uint256","internalType":"uint256"}],"stateMutability":"view"},{"type":"function","name":"updateScore","inputs":[{"name":"agentId","type":"string","internalType":"string"},{"name":"runId","type":"string","internalType":"string"},{"name":"score","type":"uint256","internalType":"uint256"},{"name":"reason","type":"string","internalType":"string"}],"outputs":[],"stateMutability":"nonpayable"},{"type":"event","name":"RunStarted","inputs":[{"name":"runId","type":"string","indexed":true,"internalType":"string"},{"name":"timestamp","type":"uint256","indexed":false,"internalType":"uint256"}],"anonymous":false},{"type":"event","name":"ScoreClampedWarning","inputs":[{"name":"agentId","type":"string","indexed":true,"internalType":"string"},{"name":"runId","type":"string","indexed":true,"internalType":"string"},{"name":"attemptedScore","type":"uint256","indexed":false,"internalType":"uint256"},{"name":"timestamp","type":"uint256","indexed":false,"internalType":"uint256"}],"anonymous":false},{"type":"event","name":"ScoreUpdated","inputs":[{"name":"agentId","type":"string","indexed":true,"internalType":"string"},{"name":"runId","type":"string","indexed":true,"internalType":"string"},{"name":"newScore","type":"uint256","indexed":false,"internalType":"uint256"},{"name":"timestamp","type":"uint256","indexed":false,"internalType":"uint256"},{"name":"reason","type":"string","indexed":false,"internalType":"string"}],"anonymous":false}],"bytecode":{"object":"0x608060405234801561000f575f80fd5b50335f806101000a81548173ffffffffffffffffffffffffffffffffffffffff021916908373ffffffffffffffffffffffffffffffffffffffff1602179055506129708061005c5f395ff3fe608060405234801561000f575f80fd5b50600436106100fe575f3560e01c80638f713a1d11610095578063c861234d11610064578063c861234d146102e4578063ddce045a14610314578063ef3ac94d14610345578063fd5975c314610377576100fe565b80638f713a1d14610270578063987bc2901461028c578063af0fda73146102a8578063b6f6eb51146102c6576100fe565b80636d0a40fe116100d15780636d0a40fe146101c257806386bf93db146101f25780638da5cb5b146102225780638e2b149c14610240576100fe565b806329728e731461010257806338924b1c146101325780635e49feaa1461016257806367ee789a14610192575b5f80fd5b61011c600480360381019061011791906117d9565b6103a7565b6040516101299190611867565b60405180910390f35b61014c600480360381019061014791906118aa565b6103f7565b604051610159919061194f565b60405180910390f35b61017c600480360381019061017791906119cc565b61049d565b6040516101899190611867565b60405180910390f35b6101ac60048036038101906101a79190611a4a565b6104e7565b6040516101b99190611aab565b60405180910390f35b6101dc60048036038101906101d791906117d9565b61051c565b6040516101e99190611867565b60405180910390f35b61020c60048036038101906102079190611ac4565b61056c565b604051610219919061194f565b60405180910390f35b61022a610635565b6040516102379190611b5d565b60405180910390f35b61025a600480360381019061025591906117d9565b610658565b6040516102679190611aab565b60405180910390f35b61028a60048036038101906102859190611b76565b6106b2565b005b6102a660048036038101906102a19190611c3a565b610c28565b005b6102b0610f2d565b6040516102bd9190611867565b60405180910390f35b6102ce610f39565b6040516102db919061194f565b60405180910390f35b6102fe60048036038101906102f991906119cc565b611017565b60405161030b9190611de4565b60405180910390f35b61032e60048036038101906103299190611c3a565b611157565b60405161033c929190611f67565b60405180910390f35b61035f600480360381019061035a9190611f9c565b61137d565b60405161036e93929190612024565b60405180910390f35b610391600480360381019061038c91906119cc565b61147e565b60405161039e91906120c2565b60405180910390f35b600382805160208101820180518482526020830160208501208183528095505050505050818051602081018201805184825260208301602085012081835280955050505050505f91509150505481565b60078181548110610406575f80fd5b905f5260205f20015f91509050805461041e90612108565b80601f016020809104026020016040519081016040528092919081815260200182805461044a90612108565b80156104955780601f1061046c57610100808354040283529160200191610495565b820191905f5260205f20905b81548152906001019060200180831161047857829003601f168201915b505050505081565b5f600185856040516104b0929190612166565b908152602001604051809103902083836040516104ce929190612166565b9081526020016040518091039020549050949350505050565b6006818051602081018201805184825260208301602085012081835280955050505050505f915054906101000a900460ff1681565b600182805160208101820180518482526020830160208501208183528095505050505050818051602081018201805184825260208301602085012081835280955050505050505f91509150505481565b600582805160208101820180518482526020830160208501208183528095505050505050818154811061059d575f80fd5b905f5260205f20015f915091505080546105b690612108565b80601f01602080910402602001604051908101604052809291908181526020018280546105e290612108565b801561062d5780601f106106045761010080835404028352916020019161062d565b820191905f5260205f20905b81548152906001019060200180831161061057829003601f168201915b505050505081565b5f8054906101000a900473ffffffffffffffffffffffffffffffffffffffff1681565b600482805160208101820180518482526020830160208501208183528095505050505050818051602081018201805184825260208301602085012081835280955050505050505f915091509054906101000a900460ff1681565b5f8054906101000a900473ffffffffffffffffffffffffffffffffffffffff1673ffffffffffffffffffffffffffffffffffffffff163373ffffffffffffffffffffffffffffffffffffffff161461073f576040517f08c379a0000000000000000000000000000000000000000000000000000000008152600401610736906121ee565b60405180910390fd5b868686865f8484905011610788576040517f08c379a000000000000000000000000000000000000000000000000000000000815260040161077f9061227c565b60405180910390fd5b5f82829050116107cd576040517f08c379a00000000000000000000000000000000000000000000000000000000081526004016107c49061230a565b60405180910390fd5b5f87905060648811156108485789896040516107ea929190612166565b60405180910390208c8c604051610802929190612166565b60405180910390207f249a546e021345239096fee12395163fff3574ca0f4982a9cf0b397a370ba2888a4260405161083b929190612328565b60405180910390a3606490505b60068a8a60405161085a929190612166565b90815260200160405180910390205f9054906101000a900460ff1661093c57600160068b8b60405161088d929190612166565b90815260200160405180910390205f6101000a81548160ff02191690831515021790555060078a8a90918060018154018082558091505060019003905f5260205f20015f9091929091929091929091925091826108eb9291906124f6565b5089896040516108fc929190612166565b60405180910390207f7c107a9e80e1624aedb4e878a804cad279ca089848a8c87869b93907209168ce426040516109339190611867565b60405180910390a25b60048c8c60405161094e929190612166565b90815260200160405180910390208a8a60405161096c929190612166565b90815260200160405180910390205f9054906101000a900460ff166109e55760058a8a60405161099d929190612166565b90815260200160405180910390208c8c90918060018154018082558091505060019003905f5260205f20015f9091929091929091929091925091826109e39291906124f6565b505b8060018d8d6040516109f8929190612166565b90815260200160405180910390208b8b604051610a16929190612166565b9081526020016040518091039020819055504260038d8d604051610a3b929190612166565b90815260200160405180910390208b8b604051610a59929190612166565b908152602001604051809103902081905550600160048d8d604051610a7f929190612166565b90815260200160405180910390208b8b604051610a9d929190612166565b90815260200160405180910390205f6101000a81548160ff02191690831515021790555060028c8c604051610ad3929190612166565b90815260200160405180910390208a8a604051610af1929190612166565b9081526020016040518091039020604051806060016040528083815260200142815260200189898080601f0160208091040260200160405190810160405280939291908181526020018383808284375f81840152601f19601f82011690508083019250505050505050815250908060018154018082558091505060019003905f5260205f2090600302015f909190919091505f820151815f0155602082015181600101556040820151816002019081610baa91906125c3565b5050508989604051610bbd929190612166565b60405180910390208c8c604051610bd5929190612166565b60405180910390207feb32353dd477beec0fb208232e74bfff5a8da1677909c8c6351f3b79a6a4abc483428b8b604051610c1294939291906126be565b60405180910390a3505050505050505050505050565b5f8054906101000a900473ffffffffffffffffffffffffffffffffffffffff1673ffffffffffffffffffffffffffffffffffffffff163373ffffffffffffffffffffffffffffffffffffffff1614610cb5576040517f08c379a0000000000000000000000000000000000000000000000000000000008152600401610cac906121ee565b60405180910390fd5b60068282604051610cc7929190612166565b90815260200160405180910390205f9054906101000a900460ff16610d21576040517f08c379a0000000000000000000000000000000000000000000000000000000008152600401610d189061276c565b60405180910390fd5b5f60058383604051610d34929190612166565b908152602001604051809103902090505f5b8180549050811015610f27575f828281548110610d6657610d6561278a565b5b905f5260205f20018054610d7990612108565b80601f0160208091040260200160405190810160405280929190818152602001828054610da590612108565b8015610df05780601f10610dc757610100808354040283529160200191610df0565b820191905f5260205f20905b815481529060010190602001808311610dd357829003601f168201915b505050505090505f600182604051610e0891906127e7565b90815260200160405180910390208686604051610e26929190612166565b9081526020016040518091039020819055505f600382604051610e4991906127e7565b90815260200160405180910390208686604051610e67929190612166565b9081526020016040518091039020819055505f600482604051610e8a91906127e7565b90815260200160405180910390208686604051610ea8929190612166565b90815260200160405180910390205f6101000a81548160ff021916908315150217905550600281604051610edc91906127e7565b90815260200160405180910390208585604051610efa929190612166565b90815260200160405180910390205f610f1391906115ba565b508080610f1f9061282a565b915050610d46565b50505050565b5f600780549050905090565b60605f60078054905003610f5d5760405180602001604052805f8152509050611014565b60076001600780549050610f719190612871565b81548110610f8257610f8161278a565b5b905f5260205f20018054610f9590612108565b80601f0160208091040260200160405190810160405280929190818152602001828054610fc190612108565b801561100c5780601f10610fe35761010080835404028352916020019161100c565b820191905f5260205f20905b815481529060010190602001808311610fef57829003601f168201915b505050505090505b90565b60606002858560405161102b929190612166565b90815260200160405180910390208383604051611049929190612166565b9081526020016040518091039020805480602002602001604051908101604052809291908181526020015f905b82821015611149578382905f5260205f2090600302016040518060600160405290815f8201548152602001600182015481526020016002820180546110ba90612108565b80601f01602080910402602001604051908101604052809291908181526020018280546110e690612108565b80156111315780601f1061110857610100808354040283529160200191611131565b820191905f5260205f20905b81548152906001019060200180831161111457829003601f168201915b50505050508152505081526020019060010190611076565b505050509050949350505050565b6060805f6005858560405161116d929190612166565b908152602001604051809103902090505f818054905090508067ffffffffffffffff81111561119f5761119e6116b5565b5b6040519080825280602002602001820160405280156111d257816020015b60608152602001906001900390816111bd5790505b5093508067ffffffffffffffff8111156111ef576111ee6116b5565b5b60405190808252806020026020018201604052801561121d5781602001602082028036833780820191505090505b5092505f5b818110156113735782818154811061123d5761123c61278a565b5b905f5260205f2001805461125090612108565b80601f016020809104026020016040519081016040528092919081815260200182805461127c90612108565b80156112c75780601f1061129e576101008083540402835291602001916112c7565b820191905f5260205f20905b8154815290600101906020018083116112aa57829003601f168201915b50505050508582815181106112df576112de61278a565b5b602002602001018190525060018382815481106112ff576112fe61278a565b5b905f5260205f20016040516113149190612924565b90815260200160405180910390208787604051611332929190612166565b9081526020016040518091039020548482815181106113545761135361278a565b5b602002602001018181525050808061136b9061282a565b915050611222565b5050509250929050565b6002838051602081018201805184825260208301602085012081835280955050505050508280516020810182018051848252602083016020850120818352809550505050505081815481106113d0575f80fd5b905f5260205f2090600302015f925092505050805f0154908060010154908060020180546113fd90612108565b80601f016020809104026020016040519081016040528092919081815260200182805461142990612108565b80156114745780601f1061144b57610100808354040283529160200191611474565b820191905f5260205f20905b81548152906001019060200180831161145757829003601f168201915b5050505050905083565b6114866115db565b6040518060800160405280600187876040516114a3929190612166565b908152602001604051809103902085856040516114c1929190612166565b9081526020016040518091039020548152602001600287876040516114e7929190612166565b90815260200160405180910390208585604051611505929190612166565b90815260200160405180910390208054905081526020016003878760405161152e929190612166565b9081526020016040518091039020858560405161154c929190612166565b908152602001604051809103902054815260200160048787604051611572929190612166565b90815260200160405180910390208585604051611590929190612166565b90815260200160405180910390205f9054906101000a900460ff1615158152509050949350505050565b5080545f8255600302905f5260205f20908101906115d89190611601565b50565b60405180608001604052805f81526020015f81526020015f81526020015f151581525090565b5b80821115611630575f8082015f9055600182015f9055600282015f6116279190611634565b50600301611602565b5090565b50805461164090612108565b5f825580601f10611651575061166e565b601f0160209004905f5260205f209081019061166d9190611671565b5b50565b5b80821115611688575f815f905550600101611672565b5090565b5f604051905090565b5f80fd5b5f80fd5b5f80fd5b5f80fd5b5f601f19601f8301169050919050565b7f4e487b71000000000000000000000000000000000000000000000000000000005f52604160045260245ffd5b6116eb826116a5565b810181811067ffffffffffffffff8211171561170a576117096116b5565b5b80604052505050565b5f61171c61168c565b905061172882826116e2565b919050565b5f67ffffffffffffffff821115611747576117466116b5565b5b611750826116a5565b9050602081019050919050565b828183375f83830152505050565b5f61177d6117788461172d565b611713565b905082815260208101848484011115611799576117986116a1565b5b6117a484828561175d565b509392505050565b5f82601f8301126117c0576117bf61169d565b5b81356117d084826020860161176b565b91505092915050565b5f80604083850312156117ef576117ee611695565b5b5f83013567ffffffffffffffff81111561180c5761180b611699565b5b611818858286016117ac565b925050602083013567ffffffffffffffff81111561183957611838611699565b5b611845858286016117ac565b9150509250929050565b5f819050919050565b6118618161184f565b82525050565b5f60208201905061187a5f830184611858565b92915050565b6118898161184f565b8114611893575f80fd5b50565b5f813590506118a481611880565b92915050565b5f602082840312156118bf576118be611695565b5b5f6118cc84828501611896565b91505092915050565b5f81519050919050565b5f82825260208201905092915050565b5f5b8381101561190c5780820151818401526020810190506118f1565b5f8484015250505050565b5f611921826118d5565b61192b81856118df565b935061193b8185602086016118ef565b611944816116a5565b840191505092915050565b5f6020820190508181035f8301526119678184611917565b905092915050565b5f80fd5b5f80fd5b5f8083601f84011261198c5761198b61169d565b5b8235905067ffffffffffffffff8111156119a9576119a861196f565b5b6020830191508360018202830111156119c5576119c4611973565b5b9250929050565b5f805f80604085870312156119e4576119e3611695565b5b5f85013567ffffffffffffffff811115611a0157611a00611699565b5b611a0d87828801611977565b9450945050602085013567ffffffffffffffff811115611a3057611a2f611699565b5b611a3c87828801611977565b925092505092959194509250565b5f60208284031215611a5f57611a5e611695565b5b5f82013567ffffffffffffffff811115611a7c57611a7b611699565b5b611a88848285016117ac565b91505092915050565b5f8115159050919050565b611aa581611a91565b82525050565b5f602082019050611abe5f830184611a9c565b92915050565b5f8060408385031215611ada57611ad9611695565b5b5f83013567ffffffffffffffff811115611af757611af6611699565b5b611b03858286016117ac565b9250506020611b1485828601611896565b9150509250929050565b5f73ffffffffffffffffffffffffffffffffffffffff82169050919050565b5f611b4782611b1e565b9050919050565b611b5781611b3d565b82525050565b5f602082019050611b705f830184611b4e565b92915050565b5f805f805f805f6080888a031215611b9157611b90611695565b5b5f88013567ffffffffffffffff811115611bae57611bad611699565b5b611bba8a828b01611977565b9750975050602088013567ffffffffffffffff811115611bdd57611bdc611699565b5b611be98a828b01611977565b95509550506040611bfc8a828b01611896565b935050606088013567ffffffffffffffff811115611c1d57611c1c611699565b5b611c298a828b01611977565b925092505092959891949750929550565b5f8060208385031215611c5057611c4f611695565b5b5f83013567ffffffffffffffff811115611c6d57611c6c611699565b5b611c7985828601611977565b92509250509250929050565b5f81519050919050565b5f82825260208201905092915050565b5f819050602082019050919050565b611cb78161184f565b82525050565b5f82825260208201905092915050565b5f611cd7826118d5565b611ce18185611cbd565b9350611cf18185602086016118ef565b611cfa816116a5565b840191505092915050565b5f606083015f830151611d1a5f860182611cae565b506020830151611d2d6020860182611cae565b5060408301518482036040860152611d458282611ccd565b9150508091505092915050565b5f611d5d8383611d05565b905092915050565b5f602082019050919050565b5f611d7b82611c85565b611d858185611c8f565b935083602082028501611d9785611c9f565b805f5b85811015611dd25784840389528151611db38582611d52565b9450611dbe83611d65565b925060208a01995050600181019050611d9a565b50829750879550505050505092915050565b5f6020820190508181035f830152611dfc8184611d71565b905092915050565b5f81519050919050565b5f82825260208201905092915050565b5f819050602082019050919050565b5f611e388383611ccd565b905092915050565b5f602082019050919050565b5f611e5682611e04565b611e608185611e0e565b935083602082028501611e7285611e1e565b805f5b85811015611ead5784840389528151611e8e8582611e2d565b9450611e9983611e40565b925060208a01995050600181019050611e75565b50829750879550505050505092915050565b5f81519050919050565b5f82825260208201905092915050565b5f819050602082019050919050565b5f611ef38383611cae565b60208301905092915050565b5f602082019050919050565b5f611f1582611ebf565b611f1f8185611ec9565b9350611f2a83611ed9565b805f5b83811015611f5a578151611f418882611ee8565b9750611f4c83611eff565b925050600181019050611f2d565b5085935050505092915050565b5f6040820190508181035f830152611f7f8185611e4c565b90508181036020830152611f938184611f0b565b90509392505050565b5f805f60608486031215611fb357611fb2611695565b5b5f84013567ffffffffffffffff811115611fd057611fcf611699565b5b611fdc868287016117ac565b935050602084013567ffffffffffffffff811115611ffd57611ffc611699565b5b612009868287016117ac565b925050604061201a86828701611896565b9150509250925092565b5f6060820190506120375f830186611858565b6120446020830185611858565b81810360408301526120568184611917565b9050949350505050565b61206981611a91565b82525050565b608082015f8201516120835f850182611cae565b5060208201516120966020850182611cae565b5060408201516120a96040850182611cae565b5060608201516120bc6060850182612060565b50505050565b5f6080820190506120d55f83018461206f565b92915050565b7f4e487b71000000000000000000000000000000000000000000000000000000005f52602260045260245ffd5b5f600282049050600182168061211f57607f821691505b602082108103612132576121316120db565b5b50919050565b5f81905092915050565b5f61214d8385612138565b935061215a83858461175d565b82840190509392505050565b5f612172828486612142565b91508190509392505050565b7f547275737453636f726552656769737472793a2063616c6c6572206973206e6f5f8201527f7420746865206f776e6572000000000000000000000000000000000000000000602082015250565b5f6121d8602b836118df565b91506121e38261217e565b604082019050919050565b5f6020820190508181035f830152612205816121cc565b9050919050565b7f547275737453636f726552656769737472793a206167656e7449642063616e6e5f8201527f6f7420626520656d707479000000000000000000000000000000000000000000602082015250565b5f612266602b836118df565b91506122718261220c565b604082019050919050565b5f6020820190508181035f8301526122938161225a565b9050919050565b7f547275737453636f726552656769737472793a2072756e49642063616e6e6f745f8201527f20626520656d7074790000000000000000000000000000000000000000000000602082015250565b5f6122f46029836118df565b91506122ff8261229a565b604082019050919050565b5f6020820190508181035f830152612321816122e8565b9050919050565b5f60408201905061233b5f830185611858565b6123486020830184611858565b9392505050565b5f82905092915050565b5f819050815f5260205f209050919050565b5f6020601f8301049050919050565b5f82821b905092915050565b5f600883026123b57fffffffffffffffffffffffffffffffffffffffffffffffffffffffffffffffff8261237a565b6123bf868361237a565b95508019841693508086168417925050509392505050565b5f819050919050565b5f6123fa6123f56123f08461184f565b6123d7565b61184f565b9050919050565b5f819050919050565b612413836123e0565b61242761241f82612401565b848454612386565b825550505050565b5f90565b61243b61242f565b61244681848461240a565b505050565b5b818110156124695761245e5f82612433565b60018101905061244c565b5050565b601f8211156124ae5761247f81612359565b6124888461236b565b81016020851015612497578190505b6124ab6124a38561236b565b83018261244b565b50505b505050565b5f82821c905092915050565b5f6124ce5f19846008026124b3565b1980831691505092915050565b5f6124e683836124bf565b9150826002028217905092915050565b612500838361234f565b67ffffffffffffffff811115612519576125186116b5565b5b6125238254612108565b61252e82828561246d565b5f601f83116001811461255b575f8415612549578287013590505b61255385826124db565b8655506125ba565b601f19841661256986612359565b5f5b828110156125905784890135825560018201915060208501945060208101905061256b565b868310156125ad57848901356125a9601f8916826124bf565b8355505b6001600288020188555050505b50505050505050565b6125cc826118d5565b67ffffffffffffffff8111156125e5576125e46116b5565b5b6125ef8254612108565b6125fa82828561246d565b5f60209050601f83116001811461262b575f8415612619578287015190505b61262385826124db565b86555061268a565b601f19841661263986612359565b5f5b828110156126605784890151825560018201915060208501945060208101905061263b565b8683101561267d5784890151612679601f8916826124bf565b8355505b6001600288020188555050505b505050505050565b5f61269d83856118df565b93506126aa83858461175d565b6126b3836116a5565b840190509392505050565b5f6060820190506126d15f830187611858565b6126de6020830186611858565b81810360408301526126f1818486612692565b905095945050505050565b7f547275737453636f726552656769737472793a2072756e496420646f6573206e5f8201527f6f74206578697374000000000000000000000000000000000000000000000000602082015250565b5f6127566028836118df565b9150612761826126fc565b604082019050919050565b5f6020820190508181035f8301526127838161274a565b9050919050565b7f4e487b71000000000000000000000000000000000000000000000000000000005f52603260045260245ffd5b5f6127c1826118d5565b6127cb8185612138565b93506127db8185602086016118ef565b80840191505092915050565b5f6127f282846127b7565b915081905092915050565b7f4e487b71000000000000000000000000000000000000000000000000000000005f52601160045260245ffd5b5f6128348261184f565b91507fffffffffffffffffffffffffffffffffffffffffffffffffffffffffffffffff8203612866576128656127fd565b5b600182019050919050565b5f61287b8261184f565b91506128868361184f565b925082820390508181111561289e5761289d6127fd565b5b92915050565b5f81546128b081612108565b6128ba8186612138565b9450600182165f81146128d457600181146128e95761291b565b60ff198316865281151582028601935061291b565b6128f285612359565b5f5b83811015612913578154818901526001820191506020810190506128f4565b838801955050505b50505092915050565b5f61292f82846128a4565b91508190509291505056fea26469706673582212200da69649af1eeae04cf5893167f4cb35b3a626c0cfa3958399777b44fd0a699464736f6c63430008140033","linkReferences":{}},"methodIdentifiers":{"allRunIds(uint256)":"38924b1c","getLatestRunId()":"b6f6eb51","getRunCount()":"af0fda73","getRunLeaderboard(string)":"ddce045a","getScore(string,string)":"5e49feaa","getScoreFull(string,string)":"fd5975c3","getScoreHistory(string,string)":"c861234d","hasScore(string,string)":"8e2b149c","lastUpdatedAt(string,string)":"29728e73","owner()":"8da5cb5b","resetRun(string)":"987bc290","runAgents(string,uint256)":"86bf93db","runExists(string)":"67ee789a","scoreHistory(string,string,uint256)":"ef3ac94d","scores(string,string)":"6d0a40fe","updateScore(string,string,uint256,string)":"8f713a1d"},"id":18}